BC-BANK ASIA             270622000000001260622003258400210714986221320134811 0000005000000000000000000000007000269633019997APP0000002332      20S1G997ZN02      034-7891079649         MAKASSAR                 
BC-BANK ASIA             270622000000002260622091720400210714986220210072311 0000001000000000000000000000007000276523004690APP0000009622      20S1G997ZU74      034-2582097599         SURABAYA                 
BC-BANK ASIA             270622000000003260622094400400210714986221380068311 0000000407500000000000000000007000277106007005APP0000003475      20S1G997ZB7U      034-0255650209         MAKASSAR                 

